:0300000002000EED
:0C000E00787FE4F6D8FD75810B020055E8
:1001A5003F065B4F666D7D077F6FBF86DBCFE6ED54
:0401B500FD87FFEFD4
:0C01B900010800010900010B00010A0010
:0D014E0075F00A84E5F0934480F5807F048D
:0F015B00EFD394004009E4FE0EBE7DFC1F80F13F
:01016A002272
:1000E70020B0157F1E12015B20B00A0508E508B491
:1000F7003C03E4F50830B0FD20B1157F1E12015B0B
:1001070020B10A0509E509B43C03E4F50930B1FD5E
:1001170020B2127F1E12015B20B20A050BE50BB459
:090127001803E4F50B30B2FD22CF
:10016B00E508B43C17E4F5080509E509B43C0DE4D2
:0D017B00F509050BE50BB41803E4F50B22A4
:10009A0075A0FEE50B75F00A849001A5931201572D
:1000AA0075A0FDE50B12014E75A0FBE50975F00A76
:1000BA00849312015775A0F7E50912014E75A0EF56
:1000CA00E50875F00A849312015775A0DFE50875F3
:0D00DA00F00A84E5F093F5807F0402015BDD
:03000B00020130BF
:10013000C0E0C0D0758901758C3C758AB0050AE5B0
:0E0140000AB414050508750A00D0D0D0E032CC
:1001880075B0FF758901758C3C758AB0D2AFD2A95C
:0D019800D28C1200E712016B12009A80F564
:10001A00020188E493A3F8E493A34003F68001F273
:10002A0008DFF48029E493A3F85407240CC8C333E7
:10003A00C4540F4420C8834004F456800146F6DFB6
:10004A00E4800B01020408102040809001B9E47E8C
:10005A00019360BCA3FF543F30E509541FFEE493AB
:10006A00A360010ECF54C025E060A840B8E493A372
:10007A00FAE493A3F8E493A3C8C582C8CAC583CA9D
:10008A00F0A3C8C582C8CAC583CADFE9DEE780BE55
:0101C5000039
:00000001FF
